{
  "contractName": "Storage",
  "abi": [
    {
      "constant": true,
      "inputs": [],
      "name": "myString",
      "outputs": [
        {
          "name": "",
          "type": "string"
        }
      ],
      "payable": false,
      "stateMutability": "view",
      "type": "function"
    },
    {
      "constant": false,
      "inputs": [
        {
          "name": "_myString",
          "type": "string"
        }
      ],
      "name": "setMyString",
      "outputs": [],
      "payable": false,
      "stateMutability": "nonpayable",
      "type": "function"
    }
  ],
  "bytecode": "0x608060405234801561001057600080fd5b506102ec806100206000396000f3fe60806040526004361061004c576000357c0100000000000000000000000000000000000000000000000000000000900463ffffffff168063492bfa181461005157806382180568146100e1575b600080fd5b34801561005d57600080fd5b50610066610167565b6040518080602001828103825283818151815260200191508051906020019080838360005b838110156100a657808201518184015260208101905061008b565b50505050905090810190601f1680156100d35780820380516001836020036101000a031916815260200191505b509250505060405180910390f35b3480156100ed57600080fd5b506101656004803603602081101561010457600080fd5b810190808035906020019064010000000081111561012157600080fd5b82018360208201111561013357600080fd5b8035906020019184600183028401116401000000008311171561015557600080fd5b9091929391929390505050610205565b005b60008054600181600116156101000203166002900480601f0160208091040260200160405190810160405280929190818152602001828054600181600116156101000203166002900480156101fd5780601f106101d2576101008083540402835291602001916101fd565b820191906000526020600020905b8154815290600101906020018083116101e057829003601f168201915b505050505081565b81816000919061021692919061021b565b505050565b828054600181600116156101000203166002900490600052602060002090601f016020900481019282601f1061025c57803560ff191683800117855561028a565b8280016001018555821561028a579182015b8281111561028957823582559160200191906001019061026e565b5b509050610297919061029b565b5090565b6102bd91905b808211156102b95760008160009055506001016102a1565b5090565b9056fea165627a7a72305820e10e8fe1199d7b366d5511580dabfff9367669b5e22a099acf621e27fc411c1d0029",
  "source": "pragma solidity ^0.5.0;\n\ncontract Storage{\n    string public myString;\n\n    function setMyString (string calldata _myString) external{\n        myString=_myString;\n    }\n}",
  "sourcePath": "/Users/Sushil/web-project/truffel-proj/drizzle-example/contracts/Storage.sol",
  "compiler": {
    "name": "solc",
    "version": "0.5.0+commit.1d4f565a.Emscripten.clang"
  },
  "schemaVersion": "3.0.9",
  "updatedAt": "2019-06-02T05:22:31.690Z",
  "devdoc": {
    "methods": {}
  },
  "userdoc": {
    "methods": {}
  }
}